{
  "contractName": "Bayes",
  "abi": [
    {
      "inputs": [
        {
          "internalType": "string",
          "name": "",
          "type": "string"
        },
        {
          "internalType": "bool",
          "name": "",
          "type": "bool"
        },
        {
          "internalType": "bool",
          "name": "",
          "type": "bool"
        }
      ],
      "name": "CPTS",
      "outputs": [
        {
          "internalType": "uint256",
          "name": "",
          "type": "uint256"
        }
      ],
      "stateMutability": "view",
      "type": "function"
    },
    {
      "inputs": [],
      "name": "P_AD_TRUE",
      "outputs": [
        {
          "internalType": "uint256",
          "name": "",
          "type": "uint256"
        }
      ],
      "stateMutability": "view",
      "type": "function"
    },
    {
      "inputs": [],
      "name": "P_CC_TRUE",
      "outputs": [
        {
          "internalType": "uint256",
          "name": "",
          "type": "uint256"
        }
      ],
      "stateMutability": "view",
      "type": "function"
    },
    {
      "inputs": [
        {
          "internalType": "uint256",
          "name": "p_cc_true",
          "type": "uint256"
        },
        {
          "internalType": "uint256",
          "name": "p_ad_true",
          "type": "uint256"
        }
      ],
      "name": "setPriors",
      "outputs": [],
      "stateMutability": "nonpayable",
      "type": "function"
    },
    {
      "inputs": [
        {
          "internalType": "string",
          "name": "ev_name",
          "type": "string"
        },
        {
          "internalType": "uint256",
          "name": "ff",
          "type": "uint256"
        },
        {
          "internalType": "uint256",
          "name": "ft",
          "type": "uint256"
        },
        {
          "internalType": "uint256",
          "name": "tf",
          "type": "uint256"
        },
        {
          "internalType": "uint256",
          "name": "tt",
          "type": "uint256"
        }
      ],
      "name": "setCPT",
      "outputs": [],
      "stateMutability": "nonpayable",
      "type": "function"
    },
    {
      "inputs": [
        {
          "internalType": "bool",
          "name": "cc",
          "type": "bool"
        }
      ],
      "name": "prior_cc",
      "outputs": [
        {
          "internalType": "uint256",
          "name": "",
          "type": "uint256"
        }
      ],
      "stateMutability": "view",
      "type": "function"
    },
    {
      "inputs": [
        {
          "internalType": "bool",
          "name": "ad",
          "type": "bool"
        }
      ],
      "name": "prior_ad",
      "outputs": [
        {
          "internalType": "uint256",
          "name": "",
          "type": "uint256"
        }
      ],
      "stateMutability": "view",
      "type": "function"
    },
    {
      "inputs": [
        {
          "internalType": "string",
          "name": "ev_name",
          "type": "string"
        },
        {
          "internalType": "bool",
          "name": "ev_value",
          "type": "bool"
        },
        {
          "internalType": "bool",
          "name": "cc",
          "type": "bool"
        },
        {
          "internalType": "bool",
          "name": "ad",
          "type": "bool"
        }
      ],
      "name": "p_evidence",
      "outputs": [
        {
          "internalType": "uint256",
          "name": "",
          "type": "uint256"
        }
      ],
      "stateMutability": "view",
      "type": "function"
    },
    {
      "inputs": [
        {
          "internalType": "string[]",
          "name": "ev_names",
          "type": "string[]"
        },
        {
          "internalType": "bool[]",
          "name": "ev_values",
          "type": "bool[]"
        },
        {
          "internalType": "bool[]",
          "name": "ev_observed",
          "type": "bool[]"
        }
      ],
      "name": "infer_posteriors",
      "outputs": [
        {
          "internalType": "uint256",
          "name": "p_cc_true",
          "type": "uint256"
        },
        {
          "internalType": "uint256",
          "name": "p_ad_true",
          "type": "uint256"
        },
        {
          "internalType": "uint256[2][2]",
          "name": "joint_post",
          "type": "uint256[2][2]"
        }
      ],
      "stateMutability": "view",
      "type": "function"
    }
  ],
  "bytecode": "0x608060405234801561001057600080fd5b50611301806100206000396000f3fe608060405234801561001057600080fd5b50600436106100935760003560e01c806368a706741161006657806368a70674146101325780638b89fd4f14610162578063a3fad90814610180578063b32e650a146101b2578063eb003a33146101e257610093565b8063209e316d146100985780634da4f65e146100c85780635285002d146100f8578063686058b014610116575b600080fd5b6100b260048036038101906100ad91906108ac565b6101fe565b6040516100bf91906108f2565b60405180910390f35b6100e260048036038101906100dd9190610a53565b610226565b6040516100ef91906108f2565b60405180910390f35b61010061026e565b60405161010d91906108f2565b60405180910390f35b610130600480360381019061012b9190610aee565b610274565b005b61014c60048036038101906101479190610b2e565b610286565b60405161015991906108f2565b60405180910390f35b61016a6102fa565b60405161017791906108f2565b60405180910390f35b61019a60048036038101906101959190610d5a565b610300565b6040516101a993929190610f48565b60405180910390f35b6101cc60048036038101906101c791906108ac565b6106aa565b6040516101d991906108f2565b60405180910390f35b6101fc60048036038101906101f79190610f7f565b6106d2565b005b60008161021b57600154620f42406102169190611045565b61021f565b6001545b9050919050565b60028380516020810182018051848252602083016020850120818352809550505050505060205281600052604060002060205280600052604060002060009250925050505481565b60015481565b81600081905550806001819055505050565b60008060028660405161029991906110ea565b9081526020016040518091039020600085151515158152602001908152602001600020600084151515158152602001908152602001600020549050846102ed5780620f42406102e89190611045565b6102ef565b805b915050949350505050565b60005481565b60008061030b610811565b610313610811565b60005b60028110156104475760005b600281101561043357600060018314905060006001831490506000610346826101fe565b61034f846106aa565b6103599190611101565b905060005b8c518110156103e8578a818151811061037a57610379611143565b5b6020026020010151156103d5576103c78d828151811061039d5761039c611143565b5b60200260200101518d83815181106103b8576103b7611143565b5b60200260200101518686610286565b826103d29190611101565b91505b80806103e090611172565b91505061035e565b50808686600281106103fd576103fc611143565b5b6020020151856002811061041457610413611143565b5b602002018181525050505050808061042b90611172565b915050610322565b50808061043f90611172565b915050610316565b506000805b60028110156104c45760005b60028110156104b05783826002811061047457610473611143565b5b6020020151816002811061048b5761048a611143565b5b60200201518361049b91906111ba565b925080806104a890611172565b915050610458565b5080806104bc90611172565b91505061044c565b5060008103610508576040517f08c379a00000000000000000000000000000000000000000000000000000000081526004016104ff9061124b565b60405180910390fd5b60005b60028110156105c25760005b60028110156105ae5782620f424085846002811061053857610537611143565b5b6020020151836002811061054f5761054e611143565b5b602002015161055e9190611101565b610568919061129a565b85836002811061057b5761057a611143565b5b6020020151826002811061059257610591611143565b5b60200201818152505080806105a690611172565b915050610517565b5080806105ba90611172565b91505061050b565b50826001600281106105d7576105d6611143565b5b60200201516001600281106105ef576105ee611143565b5b60200201518360016002811061060857610607611143565b5b60200201516000600281106106205761061f611143565b5b602002015161062f91906111ba565b94508260016002811061064557610644611143565b5b602002015160016002811061065d5761065c611143565b5b60200201518360006002811061067657610675611143565b5b602002015160016002811061068e5761068d611143565b5b602002015161069d91906111ba565b9350505093509350939050565b6000816106c757600054620f42406106c29190611045565b6106cb565b6000545b9050919050565b836002866040516106e391906110ea565b9081526020016040518091039020600080151515158152602001908152602001600020600080151515158152602001908152602001600020819055508260028660405161073091906110ea565b908152602001604051809103902060008015151515815260200190815260200160002060006001151515158152602001908152602001600020819055508160028660405161077e91906110ea565b90815260200160405180910390206000600115151515815260200190815260200160002060008015151515815260200190815260200160002081905550806002866040516107cc91906110ea565b90815260200160405180910390206000600115151515815260200190815260200160002060006001151515158152602001908152602001600020819055505050505050565b60405180604001604052806002905b61082861083e565b8152602001906001900390816108205790505090565b6040518060400160405280600290602082028036833780820191505090505090565b6000604051905090565b600080fd5b600080fd5b60008115159050919050565b61088981610874565b811461089457600080fd5b50565b6000813590506108a681610880565b92915050565b6000602082840312156108c2576108c161086a565b5b60006108d084828501610897565b91505092915050565b6000819050919050565b6108ec816108d9565b82525050565b600060208201905061090760008301846108e3565b92915050565b600080fd5b600080fd5b6000601f19601f8301169050919050565b7f4e487b7100000000000000000000000000000000000000000000000000000000600052604160045260246000fd5b61096082610917565b810181811067ffffffffffffffff8211171561097f5761097e610928565b5b80604052505050565b6000610992610860565b905061099e8282610957565b919050565b600067ffffffffffffffff8211156109be576109bd610928565b5b6109c782610917565b9050602081019050919050565b82818337600083830152505050565b60006109f66109f1846109a3565b610988565b905082815260208101848484011115610a1257610a11610912565b5b610a1d8482856109d4565b509392505050565b600082601f830112610a3a57610a3961090d565b5b8135610a4a8482602086016109e3565b91505092915050565b600080600060608486031215610a6c57610a6b61086a565b5b600084013567ffffffffffffffff811115610a8a57610a8961086f565b5b610a9686828701610a25565b9350506020610aa786828701610897565b9250506040610ab886828701610897565b9150509250925092565b610acb816108d9565b8114610ad657600080fd5b50565b600081359050610ae881610ac2565b92915050565b60008060408385031215610b0557610b0461086a565b5b6000610b1385828601610ad9565b9250506020610b2485828601610ad9565b9150509250929050565b60008060008060808587031215610b4857610b4761086a565b5b600085013567ffffffffffffffff811115610b6657610b6561086f565b5b610b7287828801610a25565b9450506020610b8387828801610897565b9350506040610b9487828801610897565b9250506060610ba587828801610897565b91505092959194509250565b600067ffffffffffffffff821115610bcc57610bcb610928565b5b602082029050602081019050919050565b600080fd5b6000610bf5610bf084610bb1565b610988565b90508083825260208201905060208402830185811115610c1857610c17610bdd565b5b835b81811015610c5f57803567ffffffffffffffff811115610c3d57610c3c61090d565b5b808601610c4a8982610a25565b85526020850194505050602081019050610c1a565b5050509392505050565b600082601f830112610c7e57610c7d61090d565b5b8135610c8e848260208601610be2565b91505092915050565b600067ffffffffffffffff821115610cb257610cb1610928565b5b602082029050602081019050919050565b6000610cd6610cd184610c97565b610988565b90508083825260208201905060208402830185811115610cf957610cf8610bdd565b5b835b81811015610d225780610d0e8882610897565b845260208401935050602081019050610cfb565b5050509392505050565b600082601f830112610d4157610d4061090d565b5b8135610d51848260208601610cc3565b91505092915050565b600080600060608486031215610d7357610d7261086a565b5b600084013567ffffffffffffffff811115610d9157610d9061086f565b5b610d9d86828701610c69565b935050602084013567ffffffffffffffff811115610dbe57610dbd61086f565b5b610dca86828701610d2c565b925050604084013567ffffffffffffffff811115610deb57610dea61086f565b5b610df786828701610d2c565b9150509250925092565b600060029050919050565b600081905092915050565b6000819050919050565b600060029050919050565b600081905092915050565b6000819050919050565b610e4a816108d9565b82525050565b6000610e5c8383610e41565b60208301905092915050565b6000602082019050919050565b610e7e81610e21565b610e888184610e2c565b9250610e9382610e37565b8060005b83811015610ec4578151610eab8782610e50565b9650610eb683610e68565b925050600181019050610e97565b505050505050565b6000610ed88383610e75565b60408301905092915050565b6000602082019050919050565b610efa81610e01565b610f048184610e0c565b9250610f0f82610e17565b8060005b83811015610f40578151610f278782610ecc565b9650610f3283610ee4565b925050600181019050610f13565b505050505050565b600060c082019050610f5d60008301866108e3565b610f6a60208301856108e3565b610f776040830184610ef1565b949350505050565b600080600080600060a08688031215610f9b57610f9a61086a565b5b600086013567ffffffffffffffff811115610fb957610fb861086f565b5b610fc588828901610a25565b9550506020610fd688828901610ad9565b9450506040610fe788828901610ad9565b9350506060610ff888828901610ad9565b925050608061100988828901610ad9565b9150509295509295909350565b7f4e487b7100000000000000000000000000000000000000000000000000000000600052601160045260246000fd5b6000611050826108d9565b915061105b836108d9565b925082820390508181111561107357611072611016565b5b92915050565b600081519050919050565b600081905092915050565b60005b838110156110ad578082015181840152602081019050611092565b60008484015250505050565b60006110c482611079565b6110ce8185611084565b93506110de81856020860161108f565b80840191505092915050565b60006110f682846110b9565b915081905092915050565b600061110c826108d9565b9150611117836108d9565b9250828202611125816108d9565b9150828204841483151761113c5761113b611016565b5b5092915050565b7f4e487b7100000000000000000000000000000000000000000000000000000000600052603260045260246000fd5b600061117d826108d9565b91507fffffffffffffffffffffffffffffffffffffffffffffffffffffffffffffffff82036111af576111ae611016565b5b600182019050919050565b60006111c5826108d9565b91506111d0836108d9565b92508282019050808211156111e8576111e7611016565b5b92915050565b600082825260208201905092915050565b7f4572726f72653a206e6f726d616c697a7a617a696f6e65205a3d300000000000600082015250565b6000611235601b836111ee565b9150611240826111ff565b602082019050919050565b6000602082019050818103600083015261126481611228565b9050919050565b7f4e487b7100000000000000000000000000000000000000000000000000000000600052601260045260246000fd5b60006112a5826108d9565b91506112b0836108d9565b9250826112c0576112bf61126b565b5b82820490509291505056fea26469706673582212205dc4b788e8faf1190fd12111b0b87e9fb08694331153cdd6676797082dc9816164736f6c63430008130033",
  "immutableReferences": {},
  "source": "// SPDX-License-Identifier: MIT\r\npragma solidity ^0.8.0;\r\ncontract Bayes {\r\n\r\n    uint public P_CC_TRUE;\r\n    uint public P_AD_TRUE;\r\n\r\n    // CPTS[ev_name][cc][ad]\r\n    mapping(string => mapping(bool => mapping(bool => uint))) public CPTS;\r\n\r\n    function setPriors(uint p_cc_true, uint p_ad_true) public {\r\n        P_CC_TRUE = p_cc_true;\r\n        P_AD_TRUE = p_ad_true;\r\n    }\r\n\r\n    function setCPT(\r\n        string memory ev_name,\r\n        uint ff,\r\n        uint ft,\r\n        uint tf,\r\n        uint tt\r\n    ) public {\r\n        CPTS[ev_name][false][false] = ff;\r\n        CPTS[ev_name][false][true]  = ft;\r\n        CPTS[ev_name][true][false]  = tf;\r\n        CPTS[ev_name][true][true]   = tt;\r\n    }\r\n\r\n    function prior_cc(bool cc) public view returns (uint) {\r\n        return cc ? P_CC_TRUE : (1000000 - P_CC_TRUE);\r\n    }\r\n\r\n    function prior_ad(bool ad) public view returns (uint) {\r\n        return ad ? P_AD_TRUE : (1000000 - P_AD_TRUE);\r\n    }\r\n\r\n    function p_evidence(\r\n        string memory ev_name,\r\n        bool ev_value,\r\n        bool cc,\r\n        bool ad\r\n    ) public view returns (uint) {\r\n        uint p_true = CPTS[ev_name][cc][ad];\r\n        return ev_value ? p_true : (1000000 - p_true);\r\n    }\r\n\r\n    function infer_posteriors(\r\n        string[] memory ev_names,\r\n        bool[] memory ev_values,\r\n        bool[] memory ev_observed\r\n    )\r\n    public view\r\n    returns (uint p_cc_true, uint p_ad_true, uint[2][2] memory joint_post)\r\n    {\r\n        uint[2][2] memory joint_unnorm;\r\n\r\n        for (uint i = 0; i < 2; i++) {\r\n            for (uint j = 0; j < 2; j++) {\r\n\r\n                bool cc = (i == 1);\r\n                bool ad = (j == 1);\r\n\r\n                uint prob = prior_cc(cc) * prior_ad(ad);\r\n\r\n                for (uint k = 0; k < ev_names.length; k++) {\r\n                    if (!ev_observed[k]) {\r\n                        continue;\r\n                    }\r\n                    prob = prob * p_evidence(ev_names[k], ev_values[k], cc, ad);\r\n                }\r\n\r\n                joint_unnorm[i][j] = prob;\r\n            }\r\n        }\r\n\r\n        uint Z = 0;\r\n        for (uint i = 0; i < 2; i++) {\r\n            for (uint j = 0; j < 2; j++) {\r\n                Z += joint_unnorm[i][j];\r\n            }\r\n        }\r\n\r\n        require(Z != 0, \"Errore: normalizzazione Z=0\");\r\n\r\n        for (uint i = 0; i < 2; i++) {\r\n            for (uint j = 0; j < 2; j++) {\r\n                joint_post[i][j] = joint_unnorm[i][j] * 1000000 / Z;\r\n            }\r\n        }\r\n\r\n        p_cc_true = joint_post[1][0] + joint_post[1][1];\r\n        p_ad_true = joint_post[0][1] + joint_post[1][1];\r\n    }\r\n}",
  "sourcePath": "C:\\Users\\aless\\OneDrive\\Desktop\\software security\\security_project\\lab\\contracts\\test_bayes.sol",
  "compiler": {
    "name": "solc",
    "version": "0.8.19+commit.7dd6d404.Emscripten.clang"
  },
  "schemaVersion": "3.4.16",
  "updatedAt": "2026-01-22T10:04:25.773Z",
  "devdoc": {
    "kind": "dev",
    "methods": {},
    "version": 1
  },
  "userdoc": {
    "kind": "user",
    "methods": {},
    "version": 1
  }
}