{
  "contractName": "BayesianOracleSimple",
  "abi": [
    {
      "inputs": [
        {
          "internalType": "uint256",
          "name": "_pCcTrue",
          "type": "uint256"
        },
        {
          "internalType": "uint256",
          "name": "_pAdTrue",
          "type": "uint256"
        },
        {
          "internalType": "uint256[2][2]",
          "name": "cptPA",
          "type": "uint256[2][2]"
        },
        {
          "internalType": "uint256[2][2]",
          "name": "cptPT",
          "type": "uint256[2][2]"
        },
        {
          "internalType": "uint256[2][2]",
          "name": "cptCO",
          "type": "uint256[2][2]"
        },
        {
          "internalType": "uint256[2][2]",
          "name": "cptDB",
          "type": "uint256[2][2]"
        }
      ],
      "stateMutability": "nonpayable",
      "type": "constructor"
    },
    {
      "inputs": [
        {
          "internalType": "uint256",
          "name": "",
          "type": "uint256"
        },
        {
          "internalType": "uint256",
          "name": "",
          "type": "uint256"
        }
      ],
      "name": "CPT_CO",
      "outputs": [
        {
          "internalType": "uint256",
          "name": "",
          "type": "uint256"
        }
      ],
      "stateMutability": "view",
      "type": "function",
      "constant": true
    },
    {
      "inputs": [
        {
          "internalType": "uint256",
          "name": "",
          "type": "uint256"
        },
        {
          "internalType": "uint256",
          "name": "",
          "type": "uint256"
        }
      ],
      "name": "CPT_DB",
      "outputs": [
        {
          "internalType": "uint256",
          "name": "",
          "type": "uint256"
        }
      ],
      "stateMutability": "view",
      "type": "function",
      "constant": true
    },
    {
      "inputs": [
        {
          "internalType": "uint256",
          "name": "",
          "type": "uint256"
        },
        {
          "internalType": "uint256",
          "name": "",
          "type": "uint256"
        }
      ],
      "name": "CPT_PA",
      "outputs": [
        {
          "internalType": "uint256",
          "name": "",
          "type": "uint256"
        }
      ],
      "stateMutability": "view",
      "type": "function",
      "constant": true
    },
    {
      "inputs": [
        {
          "internalType": "uint256",
          "name": "",
          "type": "uint256"
        },
        {
          "internalType": "uint256",
          "name": "",
          "type": "uint256"
        }
      ],
      "name": "CPT_PT",
      "outputs": [
        {
          "internalType": "uint256",
          "name": "",
          "type": "uint256"
        }
      ],
      "stateMutability": "view",
      "type": "function",
      "constant": true
    },
    {
      "inputs": [],
      "name": "P_AD_TRUE",
      "outputs": [
        {
          "internalType": "uint256",
          "name": "",
          "type": "uint256"
        }
      ],
      "stateMutability": "view",
      "type": "function",
      "constant": true
    },
    {
      "inputs": [],
      "name": "P_CC_TRUE",
      "outputs": [
        {
          "internalType": "uint256",
          "name": "",
          "type": "uint256"
        }
      ],
      "stateMutability": "view",
      "type": "function",
      "constant": true
    },
    {
      "inputs": [],
      "name": "SCALE",
      "outputs": [
        {
          "internalType": "uint256",
          "name": "",
          "type": "uint256"
        }
      ],
      "stateMutability": "view",
      "type": "function",
      "constant": true
    },
    {
      "inputs": [
        {
          "internalType": "bool",
          "name": "cc",
          "type": "bool"
        }
      ],
      "name": "priorCC",
      "outputs": [
        {
          "internalType": "uint256",
          "name": "",
          "type": "uint256"
        }
      ],
      "stateMutability": "view",
      "type": "function",
      "constant": true
    },
    {
      "inputs": [
        {
          "internalType": "bool",
          "name": "ad",
          "type": "bool"
        }
      ],
      "name": "priorAD",
      "outputs": [
        {
          "internalType": "uint256",
          "name": "",
          "type": "uint256"
        }
      ],
      "stateMutability": "view",
      "type": "function",
      "constant": true
    },
    {
      "inputs": [
        {
          "internalType": "uint8",
          "name": "ev",
          "type": "uint8"
        },
        {
          "internalType": "bool",
          "name": "evValue",
          "type": "bool"
        },
        {
          "internalType": "bool",
          "name": "cc",
          "type": "bool"
        },
        {
          "internalType": "bool",
          "name": "ad",
          "type": "bool"
        }
      ],
      "name": "pEvidence",
      "outputs": [
        {
          "internalType": "uint256",
          "name": "",
          "type": "uint256"
        }
      ],
      "stateMutability": "view",
      "type": "function",
      "constant": true
    },
    {
      "inputs": [
        {
          "internalType": "bool",
          "name": "pa",
          "type": "bool"
        },
        {
          "internalType": "bool",
          "name": "pt",
          "type": "bool"
        },
        {
          "internalType": "bool",
          "name": "co",
          "type": "bool"
        },
        {
          "internalType": "bool",
          "name": "db",
          "type": "bool"
        }
      ],
      "name": "inferPosteriors",
      "outputs": [
        {
          "internalType": "uint256",
          "name": "pCcTrue",
          "type": "uint256"
        },
        {
          "internalType": "uint256",
          "name": "pAdTrue",
          "type": "uint256"
        },
        {
          "internalType": "uint256[4]",
          "name": "jointPost",
          "type": "uint256[4]"
        }
      ],
      "stateMutability": "view",
      "type": "function",
      "constant": true
    }
  ],
  "bytecode": "0x60806040523480156200001157600080fd5b50604051620012cc380380620012cc833981810160405281019062000037919062000403565b856000819055508460018190555083600290600262000058929190620000a1565b508260069060026200006c929190620000a1565b5081600a90600262000080929190620000a1565b5080600e90600262000094929190620000a1565b50505050505050620004a2565b82600280028101928215620000e5579160200282015b82811115620000e457825182906002620000d3929190620000f8565b5091602001919060020190620000b7565b5b509050620000f491906200013d565b5090565b82600281019282156200012a579160200282015b82811115620001295782518255916020019190600101906200010c565b5b50905062000139919062000165565b5090565b5b8082111562000161576000818162000157919062000184565b506002016200013e565b5090565b5b808211156200018057600081600090555060010162000166565b5090565b506000815560010160009055565b6000604051905090565b600080fd5b6000819050919050565b620001b681620001a1565b8114620001c257600080fd5b50565b600081519050620001d681620001ab565b92915050565b600080fd5b6000601f19601f8301169050919050565b7f4e487b7100000000000000000000000000000000000000000000000000000000600052604160045260246000fd5b6200022c82620001e1565b810181811067ffffffffffffffff821117156200024e576200024d620001f2565b5b80604052505050565b60006200026362000192565b905062000271828262000221565b919050565b600067ffffffffffffffff821115620002945762000293620001f2565b5b602082029050919050565b600080fd5b600067ffffffffffffffff821115620002c257620002c1620001f2565b5b602082029050919050565b6000620002e4620002de84620002a4565b62000257565b905080602084028301858111156200030157620003006200029f565b5b835b818110156200032e5780620003198882620001c5565b84526020840193505060208101905062000303565b5050509392505050565b600082601f83011262000350576200034f620001dc565b5b60026200035f848285620002cd565b91505092915050565b60006200037f620003798462000276565b62000257565b905080604084028301858111156200039c576200039b6200029f565b5b835b81811015620003c95780620003b4888262000338565b8452602084019350506040810190506200039e565b5050509392505050565b600082601f830112620003eb57620003ea620001dc565b5b6002620003fa84828562000368565b91505092915050565b60008060008060008061024087890312156200042457620004236200019c565b5b60006200043489828a01620001c5565b96505060206200044789828a01620001c5565b95505060406200045a89828a01620003d3565b94505060c06200046d89828a01620003d3565b9350506101406200048189828a01620003d3565b9250506101c06200049589828a01620003d3565b9150509295509295509295565b610e1a80620004b26000396000f3fe608060405234801561001057600080fd5b50600436106100a95760003560e01c80638b89fd4f116100715780638b89fd4f1461018c5780639e95452b146101aa578063c8ec7e26146101da578063ecdffabd1461020c578063eced55261461023c578063eec007f11461025a576100a9565b80631c3baccf146100ae5780632063497f146100de5780632aaa6a321461010e5780635285002d1461013e578063694929041461015c575b600080fd5b6100c860048036038101906100c39190610862565b61028a565b6040516100d591906108b1565b60405180910390f35b6100f860048036038101906100f39190610904565b6102b8565b60405161010591906108b1565b60405180910390f35b61012860048036038101906101239190610904565b6102e0565b60405161013591906108b1565b60405180910390f35b610146610308565b60405161015391906108b1565b60405180910390f35b61017660048036038101906101719190610862565b61030e565b60405161018391906108b1565b60405180910390f35b61019461033c565b6040516101a191906108b1565b60405180910390f35b6101c460048036038101906101bf9190610862565b610342565b6040516101d191906108b1565b60405180910390f35b6101f460048036038101906101ef9190610931565b610370565b60405161020393929190610a43565b60405180910390f35b61022660048036038101906102219190610862565b6105e9565b60405161023391906108b1565b60405180910390f35b610244610617565b60405161025191906108b1565b60405180910390f35b610274600480360381019061026f9190610ab3565b61061e565b60405161028191906108b1565b60405180910390f35b600e826002811061029a57600080fd5b6002020181600281106102ac57600080fd5b01600091509150505481565b6000816102d557600154620f42406102d09190610b49565b6102d9565b6001545b9050919050565b6000816102fd57600054620f42406102f89190610b49565b610301565b6000545b9050919050565b60015481565b6002826002811061031e57600080fd5b60020201816002811061033057600080fd5b01600091509150505481565b60005481565b600a826002811061035257600080fd5b60020201816002811061036457600080fd5b01600091509150505481565b60008061037b610805565b60006040518060800160405280891515151581526020018815151515815260200187151515158152602001861515151581525090506103b8610805565b6000805b60048110156104af57600060028210159050600060016002846103df9190610bac565b1490506000620f42406103f1836102b8565b6103fa856102e0565b6104049190610bdd565b61040e9190610c1f565b905060005b600481101561046d57620f4240610443828a846004811061043757610436610c50565b5b6020020151878761061e565b8361044e9190610bdd565b6104589190610c1f565b9150808061046590610c7f565b915050610413565b508086856004811061048257610481610c50565b5b60200201818152505080856104979190610cc7565b945050505080806104a790610c7f565b9150506103bc565b50600081116104f3576040517f08c379a00000000000000000000000000000000000000000000000000000000081526004016104ea90610d58565b60405180910390fd5b60005b600481101561055f5781620f424084836004811061051757610516610c50565b5b60200201516105269190610bdd565b6105309190610c1f565b85826004811061054357610542610c50565b5b602002018181525050808061055790610c7f565b9150506104f6565b508360036004811061057457610573610c50565b5b60200201518460026004811061058d5761058c610c50565b5b602002015161059c9190610cc7565b9550836003600481106105b2576105b1610c50565b5b6020020151846001600481106105cb576105ca610c50565b5b60200201516105da9190610cc7565b94505050509450945094915050565b600682600281106105f957600080fd5b60020201816002811061060b57600080fd5b01600091509150505481565b620f424081565b60008060008660ff16036106815760028461063a57600061063d565b60015b60ff166002811061065157610650610c50565b5b6002020183610661576000610664565b60015b60ff166002811061067857610677610c50565b5b015490506107df565b60018660ff16036106e15760068461069a57600061069d565b60015b60ff16600281106106b1576106b0610c50565b5b60020201836106c15760006106c4565b60015b60ff16600281106106d8576106d7610c50565b5b015490506107de565b60028660ff160361074157600a846106fa5760006106fd565b60015b60ff166002811061071157610710610c50565b5b6002020183610721576000610724565b60015b60ff166002811061073857610737610c50565b5b015490506107dd565b60038660ff16036107a157600e8461075a57600061075d565b60015b60ff166002811061077157610770610c50565b5b6002020183610781576000610784565b60015b60ff166002811061079857610797610c50565b5b015490506107dc565b6040517f08c379a00000000000000000000000000000000000000000000000000000000081526004016107d390610dc4565b60405180910390fd5b5b5b5b846107f85780620f42406107f39190610b49565b6107fa565b805b915050949350505050565b6040518060800160405280600490602082028036833780820191505090505090565b600080fd5b6000819050919050565b61083f8161082c565b811461084a57600080fd5b50565b60008135905061085c81610836565b92915050565b6000806040838503121561087957610878610827565b5b60006108878582860161084d565b92505060206108988582860161084d565b9150509250929050565b6108ab8161082c565b82525050565b60006020820190506108c660008301846108a2565b92915050565b60008115159050919050565b6108e1816108cc565b81146108ec57600080fd5b50565b6000813590506108fe816108d8565b92915050565b60006020828403121561091a57610919610827565b5b6000610928848285016108ef565b91505092915050565b6000806000806080858703121561094b5761094a610827565b5b6000610959878288016108ef565b945050602061096a878288016108ef565b935050604061097b878288016108ef565b925050606061098c878288016108ef565b91505092959194509250565b600060049050919050565b600081905092915050565b6000819050919050565b6109c18161082c565b82525050565b60006109d383836109b8565b60208301905092915050565b6000602082019050919050565b6109f581610998565b6109ff81846109a3565b9250610a0a826109ae565b8060005b83811015610a3b578151610a2287826109c7565b9650610a2d836109df565b925050600181019050610a0e565b505050505050565b600060c082019050610a5860008301866108a2565b610a6560208301856108a2565b610a7260408301846109ec565b949350505050565b600060ff82169050919050565b610a9081610a7a565b8114610a9b57600080fd5b50565b600081359050610aad81610a87565b92915050565b60008060008060808587031215610acd57610acc610827565b5b6000610adb87828801610a9e565b9450506020610aec878288016108ef565b9350506040610afd878288016108ef565b9250506060610b0e878288016108ef565b91505092959194509250565b7f4e487b7100000000000000000000000000000000000000000000000000000000600052601160045260246000fd5b6000610b548261082c565b9150610b5f8361082c565b9250828203905081811115610b7757610b76610b1a565b5b92915050565b7f4e487b7100000000000000000000000000000000000000000000000000000000600052601260045260246000fd5b6000610bb78261082c565b9150610bc28361082c565b925082610bd257610bd1610b7d565b5b828206905092915050565b6000610be88261082c565b9150610bf38361082c565b9250828202610c018161082c565b91508282048414831517610c1857610c17610b1a565b5b5092915050565b6000610c2a8261082c565b9150610c358361082c565b925082610c4557610c44610b7d565b5b828204905092915050565b7f4e487b7100000000000000000000000000000000000000000000000000000000600052603260045260246000fd5b6000610c8a8261082c565b91507fffffffffffffffffffffffffffffffffffffffffffffffffffffffffffffffff8203610cbc57610cbb610b1a565b5b600182019050919050565b6000610cd28261082c565b9150610cdd8361082c565b9250828201905080821115610cf557610cf4610b1a565b5b92915050565b600082825260208201905092915050565b7f4e6f726d616c697a6174696f6e206572726f7200000000000000000000000000600082015250565b6000610d42601383610cfb565b9150610d4d82610d0c565b602082019050919050565b60006020820190508181036000830152610d7181610d35565b9050919050565b7f556e6b6e6f776e2065766964656e636500000000000000000000000000000000600082015250565b6000610dae601083610cfb565b9150610db982610d78565b602082019050919050565b60006020820190508181036000830152610ddd81610da1565b905091905056fea2646970667358221220825d9e8deb9647a026907a4c426bdf76960e103a3ff00398e1c226aec9b5bb8964736f6c63430008130033",
  "immutableReferences": {},
  "source": "// SPDX-License-Identifier: MIT\r\npragma solidity ^0.8.0;\r\n\r\ncontract BayesianOracleSimple {\r\n\r\n    // Fixed-point scale\r\n\r\n    uint256 public constant SCALE = 1_000_000;\r\n\r\n    // PRIORS (da JSON)\r\n\r\n    uint256 public P_CC_TRUE;\r\n    uint256 public P_AD_TRUE;\r\n\r\n    // CPTs: [CC][AD]\r\n   \r\n    uint256[2][2] public CPT_PA;\r\n    uint256[2][2] public CPT_PT;\r\n    uint256[2][2] public CPT_CO;\r\n    uint256[2][2] public CPT_DB;\r\n\r\n\r\n    // CONSTRUCTOR\r\n   \r\n    constructor(\r\n        uint256 _pCcTrue,\r\n        uint256 _pAdTrue,\r\n        uint256[2][2] memory cptPA,\r\n        uint256[2][2] memory cptPT,\r\n        uint256[2][2] memory cptCO,\r\n        uint256[2][2] memory cptDB\r\n    ) {\r\n        P_CC_TRUE = _pCcTrue;\r\n        P_AD_TRUE = _pAdTrue;\r\n\r\n        CPT_PA = cptPA;\r\n        CPT_PT = cptPT;\r\n        CPT_CO = cptCO;\r\n        CPT_DB = cptDB;\r\n    }\r\n\r\n    // prior_cc\r\n \r\n    function priorCC(bool cc) public view returns (uint256) {\r\n        return cc ? P_CC_TRUE : (SCALE - P_CC_TRUE);\r\n    }\r\n\r\n    // prior_ad\r\n    \r\n    function priorAD(bool ad) public view returns (uint256) {\r\n        return ad ? P_AD_TRUE : (SCALE - P_AD_TRUE);\r\n    }\r\n\r\n    // p_evidence\r\n    \r\n    function pEvidence(\r\n    uint8 ev,      // 0=PA, 1=PT, 2=CO, 3=DB\r\n    bool evValue,\r\n    bool cc,\r\n    bool ad\r\n) public view returns (uint256) {\r\n\r\n    uint256 pTrue;\r\n\r\n    if (ev == 0) {\r\n        pTrue = CPT_PA[cc ? 1 : 0][ad ? 1 : 0];\r\n    } else if (ev == 1) {\r\n        pTrue = CPT_PT[cc ? 1 : 0][ad ? 1 : 0];\r\n    } else if (ev == 2) {\r\n        pTrue = CPT_CO[cc ? 1 : 0][ad ? 1 : 0];\r\n    } else if (ev == 3) {\r\n        pTrue = CPT_DB[cc ? 1 : 0][ad ? 1 : 0];\r\n    } else {\r\n        revert(\"Unknown evidence\");\r\n    }\r\n\r\n    return evValue ? pTrue : (SCALE - pTrue);\r\n}\r\n\r\n    // infer_posteriors\r\n    \r\n    function inferPosteriors(\r\n        bool pa,\r\n        bool pt,\r\n        bool co,\r\n        bool db\r\n    )\r\n        public\r\n        view\r\n        returns (\r\n            uint256 pCcTrue,\r\n            uint256 pAdTrue,\r\n            uint256[4] memory jointPost\r\n        )\r\n    {\r\n        bool[4] memory evs = [pa, pt, co, db];\r\n\r\n        uint256[4] memory jointUnnorm;\r\n        uint256 Z = 0;\r\n\r\n        // combinazioni CC, AD:\r\n        // 0: (F,F)\r\n        // 1: (F,T)\r\n        // 2: (T,F)\r\n        // 3: (T,T)\r\n        for (uint256 i = 0; i < 4; i++) {\r\n            bool cc = (i >= 2);\r\n            bool ad = (i % 2 == 1);\r\n\r\n            uint256 prob = priorCC(cc) * priorAD(ad) / SCALE;\r\n\r\n            // moltiplica per TUTTE le evidenze\r\n            for (uint256 ev = 0; ev < 4; ev++) {\r\n                prob = prob * pEvidence(uint8(ev), evs[ev], cc, ad) / SCALE;\r\n            }\r\n\r\n            jointUnnorm[i] = prob;\r\n            Z += prob;\r\n        }\r\n\r\n        require(Z > 0, \"Normalization error\");\r\n\r\n        // normalizzazione\r\n        for (uint256 i = 0; i < 4; i++) {\r\n            jointPost[i] = jointUnnorm[i] * SCALE / Z;\r\n        }\r\n\r\n        // margini\r\n        // P(CC = true) = (T,F) + (T,T)\r\n        pCcTrue = jointPost[2] + jointPost[3];\r\n\r\n        // P(AD = true) = (F,T) + (T,T)\r\n        pAdTrue = jointPost[1] + jointPost[3];\r\n    }\r\n}\r\n",
  "sourcePath": "C:\\Users\\aless\\OneDrive\\Desktop\\software security\\security_project\\lab\\contracts\\on_chain.sol",
  "compiler": {
    "name": "solc",
    "version": "0.8.19+commit.7dd6d404.Emscripten.clang"
  },
  "schemaVersion": "3.4.16",
  "updatedAt": "2026-01-22T10:04:32.283Z",
  "networkType": "ethereum",
  "devdoc": {
    "kind": "dev",
    "methods": {},
    "version": 1
  },
  "userdoc": {
    "kind": "user",
    "methods": {},
    "version": 1
  }
}